{
  "transactions": [
    {
      "hash": "0x319b51f9f5f984a3b3636cd9555530ce57cdb421e5e36b35d4fc4e1e65552436",
      "transactionType": "CREATE",
      "contractName": "CurrencyManager",
      "contractAddress": "0x06fb72c7535D23e001964D92De275a1105391232",
      "function": null,
      "arguments": null,
      "rpc": "https://consensys-zkevm-goerli-prealpha.infura.io/v3/ef9b71db32e242f39c6cf0691c8b521a",
      "transaction": {
        "type": "0x02",
        "from": "0xc945cf53d9ab754a3f5ee20030c78fe5d8ce0010",
        "gas": "0x89dfb",
        "value": "0x0",
        "data": "0x608060405234801561001057600080fd5b5061001a3361001f565b61006f565b600080546001600160a01b038381166001600160a01b0319831681178455604051919092169283917f8be0079c531659141344cd1fd0a4f28419497f9722a3daafe3b4186f6b6457e09190a35050565b6106708061007e6000396000f3fe608060405234801561001057600080fd5b50600436106100935760003560e01c8063715018a611610066578063715018a61461017e5780638da5cb5b14610186578063a1215849146101a1578063f2fde38b146101b4578063fd837cf6146101c757600080fd5b806301345c5414610098578063370adc95146100ad57806360708d3e14610122578063673e048114610135575b600080fd5b6100ab6100a6366004610539565b610200565b005b6100ee6100bb366004610551565b600160208190526000918252604090912080549181015460029091015460ff81169061010090046001600160a01b031684565b604080519485526020850193909352901515918301919091526001600160a01b031660608201526080015b60405180910390f35b6100ab61013036600461056a565b610283565b610163610143366004610551565b600260208190526000918252604090912080546001820154919092015483565b60408051938452602084019290925290820152606001610119565b6100ab6103aa565b6000546040516001600160a01b039091168152602001610119565b6100ab6101af366004610539565b6103be565b6100ab6101c2366004610591565b610416565b6101f26101d53660046105b5565b600360209081526000928352604080842090915290825290205481565b604051908152602001610119565b61020861048f565b8035600090815260016020526040902054156102625760405162461bcd60e51b815260206004820152601460248201527310dd5c9c995b98de48185b1c9958591e481cd95d60621b60448201526064015b60405180910390fd5b80356000908152600160205260409020819061027e82826105d7565b505050565b61028b61048f565b8035600090815260026020818152604092839020835160608101855281548082526001830154938201939093529201549282019290925290156103265760405162461bcd60e51b815260206004820152602d60248201527f4f7261636c653a205061697220776974682074686973206b657920616c72656160448201526c191e481c9959da5cdd195c9959609a1b6064820152608401610259565b81356000818152600260208181526040808420858155828801356001820181905582890135919094018190558385526003835281852081865283529381902085905580519485529084019190915282810191909152517f2470a711cdf3507c073c78e8f88c84f26e4f79177813a8c35f9fcca60e0685fb9181900360600190a15050565b6103b261048f565b6103bc60006104e9565b565b6103c661048f565b80356000908152600160205260409020546102625760405162461bcd60e51b815260206004820152601060248201526f10dd5c9c995b98de481b9bdd081cd95d60821b6044820152606401610259565b61041e61048f565b6001600160a01b0381166104835760405162461bcd60e51b815260206004820152602660248201527f4f776e61626c653a206e6577206f776e657220697320746865207a65726f206160448201526564647265737360d01b6064820152608401610259565b61048c816104e9565b50565b6000546001600160a01b031633146103bc5760405162461bcd60e51b815260206004820181905260248201527f4f776e61626c653a2063616c6c6572206973206e6f7420746865206f776e65726044820152606401610259565b600080546001600160a01b038381166001600160a01b0319831681178455604051919092169283917f8be0079c531659141344cd1fd0a4f28419497f9722a3daafe3b4186f6b6457e09190a35050565b60006080828403121561054b57600080fd5b50919050565b60006020828403121561056357600080fd5b5035919050565b60006060828403121561054b57600080fd5b6001600160a01b038116811461048c57600080fd5b6000602082840312156105a357600080fd5b81356105ae8161057c565b9392505050565b600080604083850312156105c857600080fd5b50508035926020909101359150565b81358155602082013560018201556002810160408301358015158082146105fd57600080fd5b82549150606085013561060f8161057c565b6001600160a81b03199290921660ff919091161760089190911b610100600160a81b0316179055505056fea264697066735822122000c79af8a3628e84ea0c6217c7858ebc40de32c89bf6a5df5f9bfadaf1f57a2f64736f6c63430008100033",
        "nonce": "0x2c",
        "accessList": []
      },
      "additionalContracts": []
    },
    {
      "hash": "0x8b81f2ae6dc1214550fcef920ec94c264499cace2ba907487bb7ca26584a9fe6",
      "transactionType": "CALL",
      "contractName": "CurrencyManager",
      "contractAddress": "0x06fb72c7535D23e001964D92De275a1105391232",
      "function": "addCurrency((bytes32,uint256,bool,address))",
      "arguments": [
        "(0x5553440000000000000000000000000000000000000000000000000000000000, 6, false, 0x0000000000000000000000000000000000000000)"
      ],
      "rpc": "https://consensys-zkevm-goerli-prealpha.infura.io/v3/ef9b71db32e242f39c6cf0691c8b521a",
      "transaction": {
        "type": "0x02",
        "from": "0xc945cf53d9ab754a3f5ee20030c78fe5d8ce0010",
        "to": "0x06fb72c7535d23e001964d92de275a1105391232",
        "gas": "0x17e6f",
        "value": "0x0",
        "data": "0x01345c545553440000000000000000000000000000000000000000000000000000000000000000000000000000000000000000000000000000000000000000000000000600000000000000000000000000000000000000000000000000000000000000000000000000000000000000000000000000000000000000000000000000000000",
        "nonce": "0x2d",
        "accessList": []
      },
      "additionalContracts": []
    },
    {
      "hash": "0x2c7bf8bdf9722f45e18829ebdd44174e9031d69c49731789973ee3dc5697758e",
      "transactionType": "CALL",
      "contractName": "CurrencyManager",
      "contractAddress": "0x06fb72c7535D23e001964D92De275a1105391232",
      "function": "addCurrency((bytes32,uint256,bool,address))",
      "arguments": [
        "(0x4254430000000000000000000000000000000000000000000000000000000000, 18, true, 0x5FfD3916dCcC058aDAD868cbd4bbc58d090Ef8D2)"
      ],
      "rpc": "https://consensys-zkevm-goerli-prealpha.infura.io/v3/ef9b71db32e242f39c6cf0691c8b521a",
      "transaction": {
        "type": "0x02",
        "from": "0xc945cf53d9ab754a3f5ee20030c78fe5d8ce0010",
        "to": "0x06fb72c7535d23e001964d92de275a1105391232",
        "gas": "0x1eb29",
        "value": "0x0",
        "data": "0x01345c544254430000000000000000000000000000000000000000000000000000000000000000000000000000000000000000000000000000000000000000000000001200000000000000000000000000000000000000000000000000000000000000010000000000000000000000005ffd3916dccc058adad868cbd4bbc58d090ef8d2",
        "nonce": "0x2e",
        "accessList": []
      },
      "additionalContracts": []
    },
    {
      "hash": "0x4c43eedf5d89c255c933226540a746be579e422fb3e4eaf0eabf1caae74147f3",
      "transactionType": "CALL",
      "contractName": "CurrencyManager",
      "contractAddress": "0x06fb72c7535D23e001964D92De275a1105391232",
      "function": "addCurrency((bytes32,uint256,bool,address))",
      "arguments": [
        "(0x5745544800000000000000000000000000000000000000000000000000000000, 18, true, 0x2C1b868d6596a18e32E61B901E4060C872647b6C)"
      ],
      "rpc": "https://consensys-zkevm-goerli-prealpha.infura.io/v3/ef9b71db32e242f39c6cf0691c8b521a",
      "transaction": {
        "type": "0x02",
        "from": "0xc945cf53d9ab754a3f5ee20030c78fe5d8ce0010",
        "to": "0x06fb72c7535d23e001964d92de275a1105391232",
        "gas": "0x1eb3a",
        "value": "0x0",
        "data": "0x01345c545745544800000000000000000000000000000000000000000000000000000000000000000000000000000000000000000000000000000000000000000000001200000000000000000000000000000000000000000000000000000000000000010000000000000000000000002c1b868d6596a18e32e61b901e4060c872647b6c",
        "nonce": "0x2f",
        "accessList": []
      },
      "additionalContracts": []
    },
    {
      "hash": "0x5ddf3809d3919f80d8f508351913e95657e1bc74c67660cfe8dc71bff66dc777",
      "transactionType": "CALL",
      "contractName": "CurrencyManager",
      "contractAddress": "0x06fb72c7535D23e001964D92De275a1105391232",
      "function": "addCurrency((bytes32,uint256,bool,address))",
      "arguments": [
        "(0x5553444300000000000000000000000000000000000000000000000000000000, 6, true, 0x942a59F3398Cfbf2CdB2256246F5Ed10f78C7995)"
      ],
      "rpc": "https://consensys-zkevm-goerli-prealpha.infura.io/v3/ef9b71db32e242f39c6cf0691c8b521a",
      "transaction": {
        "type": "0x02",
        "from": "0xc945cf53d9ab754a3f5ee20030c78fe5d8ce0010",
        "to": "0x06fb72c7535d23e001964d92de275a1105391232",
        "gas": "0x1eb3a",
        "value": "0x0",
        "data": "0x01345c54555344430000000000000000000000000000000000000000000000000000000000000000000000000000000000000000000000000000000000000000000000060000000000000000000000000000000000000000000000000000000000000001000000000000000000000000942a59f3398cfbf2cdb2256246f5ed10f78c7995",
        "nonce": "0x30",
        "accessList": []
      },
      "additionalContracts": []
    },
    {
      "hash": "0xae88701d199e298a34b123b064a5cfcbc7158b0c667e5694812aa5a032dc3e43",
      "transactionType": "CALL",
      "contractName": "CurrencyManager",
      "contractAddress": "0x06fb72c7535D23e001964D92De275a1105391232",
      "function": "addCurrency((bytes32,uint256,bool,address))",
      "arguments": [
        "(0x5553445400000000000000000000000000000000000000000000000000000000, 18, true, 0xB57ffafc2E5A45A92f14A3aaa254B8Fa68C7F9c6)"
      ],
      "rpc": "https://consensys-zkevm-goerli-prealpha.infura.io/v3/ef9b71db32e242f39c6cf0691c8b521a",
      "transaction": {
        "type": "0x02",
        "from": "0xc945cf53d9ab754a3f5ee20030c78fe5d8ce0010",
        "to": "0x06fb72c7535d23e001964d92de275a1105391232",
        "gas": "0x1eb3a",
        "value": "0x0",
        "data": "0x01345c54555344540000000000000000000000000000000000000000000000000000000000000000000000000000000000000000000000000000000000000000000000120000000000000000000000000000000000000000000000000000000000000001000000000000000000000000b57ffafc2e5a45a92f14a3aaa254b8fa68c7f9c6",
        "nonce": "0x31",
        "accessList": []
      },
      "additionalContracts": []
    },
    {
      "hash": "0x9c42ecff4906b619d887ba9e421d1bdda6da46147efcbd4fbc59f2ead9f16d1c",
      "transactionType": "CALL",
      "contractName": "CurrencyManager",
      "contractAddress": "0x06fb72c7535D23e001964D92De275a1105391232",
      "function": "addPair((bytes32,bytes32,bytes32))",
      "arguments": [
        "(0x574554482f555344000000000000000000000000000000000000000000000000, 0x5745544800000000000000000000000000000000000000000000000000000000, 0x5553440000000000000000000000000000000000000000000000000000000000)"
      ],
      "rpc": "https://consensys-zkevm-goerli-prealpha.infura.io/v3/ef9b71db32e242f39c6cf0691c8b521a",
      "transaction": {
        "type": "0x02",
        "from": "0xc945cf53d9ab754a3f5ee20030c78fe5d8ce0010",
        "to": "0x06fb72c7535d23e001964d92de275a1105391232",
        "gas": "0x26a21",
        "value": "0x0",
        "data": "0x60708d3e574554482f55534400000000000000000000000000000000000000000000000057455448000000000000000000000000000000000000000000000000000000005553440000000000000000000000000000000000000000000000000000000000",
        "nonce": "0x32",
        "accessList": []
      },
      "additionalContracts": []
    },
    {
      "hash": "0x4220aec4de7a5c876d7bbe993fc6d890fa37e45f932f0f4b949ffae7249d24f1",
      "transactionType": "CALL",
      "contractName": "CurrencyManager",
      "contractAddress": "0x06fb72c7535D23e001964D92De275a1105391232",
      "function": "addPair((bytes32,bytes32,bytes32))",
      "arguments": [
        "(0x4254432f55534400000000000000000000000000000000000000000000000000, 0x4254430000000000000000000000000000000000000000000000000000000000, 0x5553440000000000000000000000000000000000000000000000000000000000)"
      ],
      "rpc": "https://consensys-zkevm-goerli-prealpha.infura.io/v3/ef9b71db32e242f39c6cf0691c8b521a",
      "transaction": {
        "type": "0x02",
        "from": "0xc945cf53d9ab754a3f5ee20030c78fe5d8ce0010",
        "to": "0x06fb72c7535d23e001964d92de275a1105391232",
        "gas": "0x269ff",
        "value": "0x0",
        "data": "0x60708d3e4254432f5553440000000000000000000000000000000000000000000000000042544300000000000000000000000000000000000000000000000000000000005553440000000000000000000000000000000000000000000000000000000000",
        "nonce": "0x33",
        "accessList": []
      },
      "additionalContracts": []
    },
    {
      "hash": "0x2ab04faa9bdba00a866c715a58a225663c13dcad6d77d8f0dc9c4a627df7a74d",
      "transactionType": "CALL",
      "contractName": "CurrencyManager",
      "contractAddress": "0x06fb72c7535D23e001964D92De275a1105391232",
      "function": "addPair((bytes32,bytes32,bytes32))",
      "arguments": [
        "(0x555344432f555344000000000000000000000000000000000000000000000000, 0x5553444300000000000000000000000000000000000000000000000000000000, 0x5553440000000000000000000000000000000000000000000000000000000000)"
      ],
      "rpc": "https://consensys-zkevm-goerli-prealpha.infura.io/v3/ef9b71db32e242f39c6cf0691c8b521a",
      "transaction": {
        "type": "0x02",
        "from": "0xc945cf53d9ab754a3f5ee20030c78fe5d8ce0010",
        "to": "0x06fb72c7535d23e001964d92de275a1105391232",
        "gas": "0x26a21",
        "value": "0x0",
        "data": "0x60708d3e555344432f55534400000000000000000000000000000000000000000000000055534443000000000000000000000000000000000000000000000000000000005553440000000000000000000000000000000000000000000000000000000000",
        "nonce": "0x34",
        "accessList": []
      },
      "additionalContracts": []
    },
    {
      "hash": "0xbae5c2b145dbb1ab96f3717db483577c7577b775b544abeb8f02d206af07159b",
      "transactionType": "CALL",
      "contractName": "CurrencyManager",
      "contractAddress": "0x06fb72c7535D23e001964D92De275a1105391232",
      "function": "addPair((bytes32,bytes32,bytes32))",
      "arguments": [
        "(0x555344542f555344000000000000000000000000000000000000000000000000, 0x5553445400000000000000000000000000000000000000000000000000000000, 0x5553440000000000000000000000000000000000000000000000000000000000)"
      ],
      "rpc": "https://consensys-zkevm-goerli-prealpha.infura.io/v3/ef9b71db32e242f39c6cf0691c8b521a",
      "transaction": {
        "type": "0x02",
        "from": "0xc945cf53d9ab754a3f5ee20030c78fe5d8ce0010",
        "to": "0x06fb72c7535d23e001964d92de275a1105391232",
        "gas": "0x26a21",
        "value": "0x0",
        "data": "0x60708d3e555344542f55534400000000000000000000000000000000000000000000000055534454000000000000000000000000000000000000000000000000000000005553440000000000000000000000000000000000000000000000000000000000",
        "nonce": "0x35",
        "accessList": []
      },
      "additionalContracts": []
    },
    {
      "hash": "0xae957134290c98ea921f9f16c744553da1d92090eb9871f4526aec9d0618d5e9",
      "transactionType": "CALL",
      "contractName": "CurrencyManager",
      "contractAddress": "0x06fb72c7535D23e001964D92De275a1105391232",
      "function": "addPair((bytes32,bytes32,bytes32))",
      "arguments": [
        "(0x4441492f55534400000000000000000000000000000000000000000000000000, 0x4441490000000000000000000000000000000000000000000000000000000000, 0x5553440000000000000000000000000000000000000000000000000000000000)"
      ],
      "rpc": "https://consensys-zkevm-goerli-prealpha.infura.io/v3/ef9b71db32e242f39c6cf0691c8b521a",
      "transaction": {
        "type": "0x02",
        "from": "0xc945cf53d9ab754a3f5ee20030c78fe5d8ce0010",
        "to": "0x06fb72c7535d23e001964d92de275a1105391232",
        "gas": "0x269ff",
        "value": "0x0",
        "data": "0x60708d3e4441492f5553440000000000000000000000000000000000000000000000000044414900000000000000000000000000000000000000000000000000000000005553440000000000000000000000000000000000000000000000000000000000",
        "nonce": "0x36",
        "accessList": []
      },
      "additionalContracts": []
    },
    {
      "hash": "0x17ccbaf0abc3c7beedc053c9d01bb162b7803b772d1d8210e6710963c834f4cd",
      "transactionType": "CREATE",
      "contractName": "PublisherRegistry",
      "contractAddress": "0xd9C97273789f4bF3ad18343f4Cd703Bc2d2bdc90",
      "function": null,
      "arguments": null,
      "rpc": "https://consensys-zkevm-goerli-prealpha.infura.io/v3/ef9b71db32e242f39c6cf0691c8b521a",
      "transaction": {
        "type": "0x02",
        "from": "0xc945cf53d9ab754a3f5ee20030c78fe5d8ce0010",
        "gas": "0xea29c",
        "value": "0x0",
        "data": "0x608060405234801561001057600080fd5b5061001a3361001f565b61006f565b600080546001600160a01b038381166001600160a01b0319831681178455604051919092169283917f8be0079c531659141344cd1fd0a4f28419497f9722a3daafe3b4186f6b6457e09190a35050565b610bee8061007e6000396000f3fe608060405234801561001057600080fd5b506004361061010b5760003560e01c8063a3663d37116100a2578063d0d4a72e11610071578063d0d4a72e14610226578063d13c8f231461024f578063f2fde38b14610262578063fc2c1d3814610275578063ff060fbd146102a357600080fd5b8063a3663d37146101ca578063c528db26146101dd578063c6f17ade14610200578063cc8e4f701461021357600080fd5b806347c1998c116100de57806347c1998c14610177578063715018a61461018a578063808ba8eb146101925780638da5cb5b146101a557600080fd5b8063057d9fac1461011057806308ef1a8e1461012c57806319780b461461014f5780631d4b9a6514610164575b600080fd5b61011960075481565b6040519081526020015b60405180910390f35b61013f61013a366004610a26565b6102b6565b6040519015158152602001610123565b61016261015d366004610a48565b6102da565b005b610162610172366004610a26565b610327565b610119610185366004610a26565b6103fd565b61016261042e565b6101626101a0366004610a26565b610442565b6000546001600160a01b03165b6040516001600160a01b039091168152602001610123565b6101196101d8366004610ac7565b610542565b61013f6101eb366004610ac7565b60056020526000908152604090205460ff1681565b61016261020e366004610afc565b610563565b610162610221366004610afc565b610671565b6101b2610234366004610ac7565b6001602052600090815260409020546001600160a01b031681565b61016261025d366004610ac7565b61075c565b610162610270366004610b28565b6108c1565b61013f610283366004610a26565b600260209081526000928352604080842090915290825290205460ff1681565b6101196102b1366004610ac7565b61093a565b600082815260026020908152604080832084845290915290205460ff165b92915050565b6102e261094a565b60005b818110156103215761030f8484848481811061030357610303610b4a565b90506020020135610442565b8061031981610b76565b9150506102e5565b50505050565b61032f61094a565b6000828152600660205260408120815b8154811015610385578382828154811061035b5761035b610b4a565b90600052602060002001540361037357809250610385565b8061037d81610b76565b91505061033f565b508054819061039690600190610b8f565b815481106103a6576103a6610b4a565b90600052602060002001548183815481106103c3576103c3610b4a565b9060005260206000200181905550808054806103e1576103e1610ba2565b6001900381819060005260206000200160009055905550505050565b6006602052816000526040600020818154811061041957600080fd5b90600052602060002001600091509150505481565b61043661094a565b61044060006109a4565b565b61044a61094a565b6000828152600160205260409020546001600160a01b0316806104b45760405162461bcd60e51b815260206004820152601860248201527f5075626c697368657220646f6573206e6f74206578697374000000000000000060448201526064015b60405180910390fd5b6104be83836102b6565b156105005760405162461bcd60e51b8152602060048201526012602482015271105b1c9958591e48149959da5cdd195c995960721b60448201526064016104ab565b5060008281526002602090815260408083208484528252808320805460ff19166001908117909155948352600682528220805494850181558252902090910155565b6004818154811061055257600080fd5b600091825260209091200154905081565b61056b61094a565b6000828152600160205260409020546001600160a01b0316156105c05760405162461bcd60e51b815260206004820152600d60248201526c105b1c9958591e481059191959609a1b60448201526064016104ab565b6003805460018082019092557fc2575a0e9e593c00f959f8c92f12db2869c3395a3b0502d05e2516446f71f85b0183905560008381526020919091526040812080546001600160a01b0319166001600160a01b038416179055600780549161062783610b76565b9091555050604080518381526001600160a01b03831660208201527f563a1fdc12536c671dc9a28707514f8b9b7036bae35b45190294904c540cf755910160405180910390a15050565b6000828152600160205260409020546001600160a01b03163381146106e85760405162461bcd60e51b815260206004820152602760248201527f4f6e6c79207075626c69736865722063616e206368616e6765207468656972206044820152666164647265737360c81b60648201526084016104ab565b60008381526001602090815260409182902080546001600160a01b0319166001600160a01b03868116918217909255835187815291851692820192909252918201527fde800e734f3b98c6a73e78b649d1232b0da6ea8c01b060cd483bc1781c8992e79060600160405180910390a1505050565b61076461094a565b600081815260016020526040812080546001600160a01b03191690555b6004548110156107e557600082815260026020526040812060048054919291849081106107b0576107b0610b4a565b600091825260208083209091015483528201929092526040019020805460ff19169055806107dd81610b76565b915050610781565b506000805b60035481101561083257826003828154811061080857610808610b4a565b90600052602060002001540361082057809150610832565b8061082a81610b76565b9150506107ea565b506003805461084390600190610b8f565b8154811061085357610853610b4a565b90600052602060002001546003828154811061087157610871610b4a565b600091825260209091200155600380548061088e5761088e610ba2565b60008281526020808220830160001990810183905590920190925583825260069052604081206108bd916109f4565b5050565b6108c961094a565b6001600160a01b03811661092e5760405162461bcd60e51b815260206004820152602660248201527f4f776e61626c653a206e6577206f776e657220697320746865207a65726f206160448201526564647265737360d01b60648201526084016104ab565b610937816109a4565b50565b6003818154811061055257600080fd5b6000546001600160a01b031633146104405760405162461bcd60e51b815260206004820181905260248201527f4f776e61626c653a2063616c6c6572206973206e6f7420746865206f776e657260448201526064016104ab565b600080546001600160a01b038381166001600160a01b0319831681178455604051919092169283917f8be0079c531659141344cd1fd0a4f28419497f9722a3daafe3b4186f6b6457e09190a35050565b508054600082559060005260206000209081019061093791905b80821115610a225760008155600101610a0e565b5090565b60008060408385031215610a3957600080fd5b50508035926020909101359150565b600080600060408486031215610a5d57600080fd5b83359250602084013567ffffffffffffffff80821115610a7c57600080fd5b818601915086601f830112610a9057600080fd5b813581811115610a9f57600080fd5b8760208260051b8501011115610ab457600080fd5b6020830194508093505050509250925092565b600060208284031215610ad957600080fd5b5035919050565b80356001600160a01b0381168114610af757600080fd5b919050565b60008060408385031215610b0f57600080fd5b82359150610b1f60208401610ae0565b90509250929050565b600060208284031215610b3a57600080fd5b610b4382610ae0565b9392505050565b634e487b7160e01b600052603260045260246000fd5b634e487b7160e01b600052601160045260246000fd5b600060018201610b8857610b88610b60565b5060010190565b818103818111156102d4576102d4610b60565b634e487b7160e01b600052603160045260246000fdfea26469706673582212200d88429211f4632876ca005b355f78add59e95fe564de129ead4a1020d06d36764736f6c63430008100033",
        "nonce": "0x37",
        "accessList": []
      },
      "additionalContracts": []
    },
    {
      "hash": "0xc2487324b2f182115a5e2a2bac346bced8b40dfa38f0df380cc1a18c3f837e79",
      "transactionType": "CALL",
      "contractName": "PublisherRegistry",
      "contractAddress": "0xd9C97273789f4bF3ad18343f4Cd703Bc2d2bdc90",
      "function": "addPublisher(bytes32,address)",
      "arguments": [
        "0x454d504952494300000000000000000000000000000000000000000000000000",
        "0xC945cf53d9Ab754a3F5EE20030C78FE5D8Ce0010"
      ],
      "rpc": "https://consensys-zkevm-goerli-prealpha.infura.io/v3/ef9b71db32e242f39c6cf0691c8b521a",
      "transaction": {
        "type": "0x02",
        "from": "0xc945cf53d9ab754a3f5ee20030c78fe5d8ce0010",
        "to": "0xd9c97273789f4bf3ad18343f4cd703bc2d2bdc90",
        "gas": "0x26923",
        "value": "0x0",
        "data": "0xc6f17ade454d504952494300000000000000000000000000000000000000000000000000000000000000000000000000c945cf53d9ab754a3f5ee20030c78fe5d8ce0010",
        "nonce": "0x38",
        "accessList": []
      },
      "additionalContracts": []
    },
    {
      "hash": "0xc2783f472df5965afa86cc0223a029b571c2f7c7da60ddbeb01a32cfbd80f06b",
      "transactionType": "CALL",
      "contractName": "PublisherRegistry",
      "contractAddress": "0xd9C97273789f4bF3ad18343f4Cd703Bc2d2bdc90",
      "function": "addSourcesForPublisher(bytes32,bytes32[])",
      "arguments": [
        "0x454d504952494300000000000000000000000000000000000000000000000000",
        "[0x4345580000000000000000000000000000000000000000000000000000000000, 0x4249545354414d50000000000000000000000000000000000000000000000000, 0x47454d494e490000000000000000000000000000000000000000000000000000, 0x434f494e42415345000000000000000000000000000000000000000000000000]"
      ],
      "rpc": "https://consensys-zkevm-goerli-prealpha.infura.io/v3/ef9b71db32e242f39c6cf0691c8b521a",
      "transaction": {
        "type": "0x02",
        "from": "0xc945cf53d9ab754a3f5ee20030c78fe5d8ce0010",
        "to": "0xd9c97273789f4bf3ad18343f4cd703bc2d2bdc90",
        "gas": "0x4df9d",
        "value": "0x0",
        "data": "0x19780b46454d5049524943000000000000000000000000000000000000000000000000000000000000000000000000000000000000000000000000000000000000000040000000000000000000000000000000000000000000000000000000000000000443455800000000000000000000000000000000000000000000000000000000004249545354414d5000000000000000000000000000000000000000000000000047454d494e490000000000000000000000000000000000000000000000000000434f494e42415345000000000000000000000000000000000000000000000000",
        "nonce": "0x39",
        "accessList": []
      },
      "additionalContracts": []
    },
    {
      "hash": "0xeec18f58448817f2745c1ab89bc099a6dee69420067068eede27d3d13f0f8313",
      "transactionType": "CREATE",
      "contractName": "Oracle",
      "contractAddress": "0x26a7756c4aC33379621Da862308f8527FED3Dc47",
      "function": null,
      "arguments": null,
      "rpc": "https://consensys-zkevm-goerli-prealpha.infura.io/v3/ef9b71db32e242f39c6cf0691c8b521a",
      "transaction": {
        "type": "0x02",
        "from": "0xc945cf53d9ab754a3f5ee20030c78fe5d8ce0010",
        "gas": "0x27d113",
        "value": "0x0",
        "data": "0x6080604052600160095534801561001557600080fd5b5061001f33610024565b61007f565b600080546001600160a01b038381166201000081810262010000600160b01b0319851617855560405193049190911692909183917f8be0079c531659141344cd1fd0a4f28419497f9722a3daafe3b4186f6b6457e091a35050565b61227c8061008e6000396000f3fe608060405234801561001057600080fd5b506004361061014d5760003560e01c80638da5cb5b116100c3578063b311dcaa1161007c578063b311dcaa14610408578063ce553ede14610429578063db73656c1461043c578063f1298d131461044f578063f2fde38b14610462578063fd837cf61461047557600080fd5b80638da5cb5b14610362578063975c35dc146103795780639af4713e1461039c5780639d26d374146103af578063a007a948146103e2578063a1215849146103f557600080fd5b8063370adc9511610115578063370adc951461024d5780633f0b12fc146102bd57806360708d3e146102d0578063673e0481146102e357806370d4c74a1461032c578063715018a61461035a57600080fd5b806301345c5414610152578063149f95261461016757806317d2b89c1461017a5780632894ceda1461018d57806331e17d75146101bd575b600080fd5b610165610160366004611a3e565b6104a0565b005b610165610175366004611b88565b610523565b610165610188366004611bd5565b610564565b6004546101a0906001600160a01b031681565b6040516001600160a01b0390911681526020015b60405180910390f35b6102106101cb366004611bee565b6006602090815260009283526040808420909152908252902080546001909101546001600160801b0380831692600160801b9081900460801b92808316929190041684565b604080516001600160801b0395861681526001600160801b03199094166020850152918416918301919091529190911660608201526080016101b4565b61028e61025b366004611bd5565b600160208190526000918252604090912080549181015460029091015460ff81169061010090046001600160a01b031684565b604080519485526020850193909352901515918301919091526001600160a01b031660608201526080016101b4565b6101656102cb366004611c10565b610571565b6101656102de366004611c84565b6105ae565b6103116102f1366004611bd5565b600260208190526000918252604090912080546001820154919092015483565b604080519384526020840192909252908201526060016101b4565b61034c61033a366004611bd5565b60086020526000908152604090205481565b6040519081526020016101b4565b6101656106d4565b6000546201000090046001600160a01b03166101a0565b61038c610387366004611bee565b6106e8565b6040516101b49493929190611cce565b6101656103aa366004611dc3565b610745565b6103c26103bd366004611edb565b6109b2565b6040805194855260208501939093529183015260608201526080016101b4565b6101656103f0366004611f27565b610a36565b610165610403366004611a3e565b610a42565b61041b610416366004611f39565b610a9a565b6040516101b4929190611f7f565b610165610437366004612002565b610ac4565b61016561044a366004612025565b610ad2565b61034c61045d366004611bee565b610afc565b610165610470366004612025565b610b2d565b61034c610483366004611bee565b600360209081526000928352604080842090915290825290205481565b6104a8610ba3565b8035600090815260016020526040902054156105025760405162461bcd60e51b815260206004820152601460248201527310dd5c9c995b98de48185b1c9958591e481cd95d60621b60448201526064015b60405180910390fd5b80356000908152600160205260409020819061051e8282612042565b505050565b60005b825181101561051e57610552838281518110610544576105446120a0565b602002602001015183610c04565b8061055c816120cc565b915050610526565b61056c610ba3565b600955565b60005b8181101561051e5761059c838383818110610591576105916120a0565b905060c00201610f3b565b806105a6816120cc565b915050610574565b6105b6610ba3565b8035600090815260026020818152604092839020835160608101855281548082526001830154938201939093529201549282019290925290156106515760405162461bcd60e51b815260206004820152602d60248201527f4f7261636c653a205061697220776974682074686973206b657920616c72656160448201526c191e481c9959da5cdd195c9959609a1b60648201526084016104f9565b8135600081815260026020818152604080842085815582880135600182018190558289013591909401819055838552600383528185208186528352938190208590558051948552908401919091528201527f2470a711cdf3507c073c78e8f88c84f26e4f79177813a8c35f9fcca60e0685fb906060015b60405180910390a15050565b6106dc610ba3565b6106e660006110cf565b565b6007602052816000526040600020818154811061070457600080fd5b6000918252602090912001546001600160401b03811692506001600160801b03600160401b820416915060ff600160c01b8204811691600160c81b90041684565b600054610100900460ff16158080156107655750600054600160ff909116105b8061077f5750303b15801561077f575060005460ff166001145b6107e25760405162461bcd60e51b815260206004820152602e60248201527f496e697469616c697a61626c653a20636f6e747261637420697320616c72656160448201526d191e481a5b9a5d1a585b1a5e995960921b60648201526084016104f9565b6000805460ff191660011790558015610805576000805461ff0019166101001790555b600480546001600160a01b0319166001600160a01b03861617905560005b83518110156108da5783818151811061083e5761083e6120a0565b60200260200101516001600086848151811061085c5761085c6120a0565b60209081029190910181015151825281810192909252604090810160002083518155918301516001830155820151600290910180546060909301516001600160a01b031661010002610100600160a81b0319921515929092166001600160a81b031990931692909217179055806108d2816120cc565b915050610823565b5060005b8251811015610965578281815181106108f9576108f96120a0565b602002602001015160026000858481518110610917576109176120a0565b6020026020010151600001518152602001908152602001600020600082015181600001556020820151816001015560408201518160020155905050808061095d906120cc565b9150506108de565b5080156109ac576000805461ff0019169055604051600181527f7f26b83ff96e1f2b6a682f133852f6798a09c465da95921460cefb38474024989060200160405180910390a15b50505050565b6000806000806000806109c58988610a9a565b9150915081516000036109e75760008060008095509550955095505050610a2d565b60006109f28361112a565b90506000610a1e8b60009081526002602081815260408084209092015483526001908190529120015490565b93519197509295509093509150505b93509350935093565b610a3f81610f3b565b50565b610a4a610ba3565b80356000908152600160205260409020546105025760405162461bcd60e51b815260206004820152601060248201526f10dd5c9c995b98de481b9bdd081cd95d60821b60448201526064016104f9565b60606000806000610aab8686611224565b91509150610ab98282611380565b969095509350505050565b610ace8282610c04565b5050565b610ada610ba3565b600480546001600160a01b0319166001600160a01b0392909216919091179055565b60056020528160005260406000208181548110610b1857600080fd5b90600052602060002001600091509150505481565b610b35610ba3565b6001600160a01b038116610b9a5760405162461bcd60e51b815260206004820152602660248201527f4f776e61626c653a206e6577206f776e657220697320746865207a65726f206160448201526564647265737360d01b60648201526084016104f9565b610a3f816110cf565b6000546001600160a01b03620100009091041633146106e65760405162461bcd60e51b815260206004820181905260248201527f4f776e61626c653a2063616c6c6572206973206e6f7420746865206f776e657260448201526064016104f9565b600082815260056020908152604080832080548251818502810185019093528083529192909190830182828015610c5a57602002820191906000526020600020905b815481526020019060010190808311610c46575b505050505090506000806000610c718686866109b2565b93509350509250806009541115610ce25760405162461bcd60e51b815260206004820152602f60248201527f446f6573206e6f74206d656574207468726573686f6c6420666f72206167677260448201526e6561676174656420736f757263657360881b60648201526084016104f9565b60008681526008602052604090205415610def5760008681526007602090815260408083206008909252822054610d1b906001906120e5565b81548110610d2b57610d2b6120a0565b6000918252602091829020604080516080810182529290910180546001600160401b0381168452600160401b81046001600160801b031694840194909452919290830190600160c01b900460ff168015610d8757610d87611c96565b8015610d9557610d95611c96565b81529054600160c81b900460ff1660209091015280519091506001600160401b03168311610ded5760405162461bcd60e51b81526020600482015260056024820152647374616c6560d81b60448201526064016104f9565b505b604080516080810182526001600160401b03841681526001600160801b03851660208201526000918101878015610e2857610e28611c96565b815260ff84166020918201526000898152600890915260408120805492935090610e51836120cc565b90915550506000878152600760209081526040808320805460018101825590845292829020845193018054928501516001600160801b0316600160401b026001600160c01b03199093166001600160401b03909416939093179190911780835590830151839291829060ff60c01b1916600160c01b838015610ed557610ed5611c96565b021790555060609190910151815460ff909116600160c81b0260ff60c81b199091161790556040517f4723f66da10e7e69286c0f95ac83c70458954eb7cccedd42c469a59e9158f71190610f2a9083906120f8565b60405180910390a150505050505050565b610f458133611503565b606081810135600090815260066020908152604080832082860135845282529182902082516080808201855282546001600160801b038082168452600160801b9182900490921b6001600160801b03191694830194909452600190920154808316948201949094529190920490911691810191909152610fd381610fce36859003850185612144565b611694565b60408051608080820183526001600160801b038535811683526001600160801b0319606080880135918216602080870191825289860135851687890190815260a08b01358616938801938452600094855260068252888520828c01358652909152928790209551905190941c600160801b908102948416949094178555905190518216909202911617600190910155517f32de40418bb131efbfc7483cfdcaf13ccf812499655f8f35137b463c96fe3253906106c8908490600060c082019050823582526020830135602083015260408301356040830152606083013560608301526080830135608083015260a083013560a083015292915050565b600080546001600160a01b038381166201000081810262010000600160b01b0319851617855560405193049190911692909183917f8be0079c531659141344cd1fd0a4f28419497f9722a3daafe3b4186f6b6457e091a35050565b60008082516001600160401b0381111561114657611146611a56565b60405190808252806020026020018201604052801561116f578160200160208202803683370190505b5090506000805b845181101561121157848181518110611191576111916120a0565b6020026020010151604001516001600160801b03166000146111ff578481815181106111bf576111bf6120a0565b6020026020010151604001516001600160801b03168382815181106111e6576111e66120a0565b60209081029190910101526111fc6001836121bb565b91505b80611209816120cc565b915050611176565b5061121c828261182e565b949350505050565b606060008083516001600160401b0381111561124257611242611a56565b60405190808252806020026020018201604052801561129457816020015b6040805160808101825260008082526020808301829052928201819052606082015282526000199092019101816112605790505b50905060005b8451811015611376576000868152600660205260408120865182908890859081106112c7576112c76120a0565b602090810291909101810151825281810192909252604090810160002081516080808201845282546001600160801b03808216808552600160801b9283900490931b6001600160801b0319169684019690965260019093015480861694830194909452919092049092166060820152915061134290856118da565b935080838381518110611357576113576120a0565b602002602001018190525050808061136e906120cc565b91505061129a565b5091509250929050565b60606000805b84518110156113f65760008582815181106113a3576113a36120a0565b6020026020010151905084610e1082600001516001600160801b03166113c991906121bb565b10156113d557506113e4565b826113df816120cc565b935050505b806113ee816120cc565b915050611386565b506000816001600160401b0381111561141157611411611a56565b60405190808252806020026020018201604052801561146357816020015b60408051608081018252600080825260208083018290529282018190526060820152825260001990920191018161142f5790505b5090506000805b86518110156114f6576000878281518110611487576114876120a0565b6020026020010151905086610e1082600001516001600160801b03166114ad91906121bb565b10156114b957506114e4565b8084846114c5816120cc565b9550815181106114d7576114d76120a0565b6020026020010181905250505b806114ee816120cc565b91505061146a565b5090925050505b92915050565b600480546040805163686a539760e11b81526001600160a01b038086169493169263d0d4a72e9261153d9290880135910190815260200190565b602060405180830381865afa15801561155a573d6000803e3d6000fd5b505050506040513d601f19601f8201168201806040525081019061157e91906121ce565b6001600160a01b0316146115d45760405162461bcd60e51b815260206004820152601c60248201527f496e76616c69642053656e64657220666f72205075626c69736865720000000060448201526064016104f9565b60048054604080516304778d4760e11b81529085013592810192909252602084013560248301526001600160a01b0316906308ef1a8e90604401602060405180830381865afa15801561162b573d6000803e3d6000fd5b505050506040513d601f19601f8201168201806040525081019061164f91906121eb565b610ace5760405162461bcd60e51b815260206004820152601660248201527543616e206e6f74207075626c69736820536f7572636560501b60448201526064016104f9565b80515182516001600160801b0316106116fd5760405162461bcd60e51b815260206004820152602560248201527f4f7261636c653a204578697374696e6720656e747279206973206d6f726520726044820152641958d95b9d60da1b60648201526084016104f9565b80515161170c610e10426120e5565b11156117755760405162461bcd60e51b815260206004820152603260248201527f4f7261636c653a204e657720656e7472792074696d657374616d7020697320746044820152711bdbc819985c881a5b881d1a19481c185cdd60721b60648201526084016104f9565b805151611784610384426121bb565b10156117ef5760405162461bcd60e51b815260206004820152603460248201527f4f7261636c653a204e657720656e7472792074696d657374616d7020697320746044820152736f6f2066617220696e207468652066757475726560601b60648201526084016104f9565b81516001600160801b0316600003610ace5760208082015160009081526005825260408120835183015181546001810183559183529290912001555050565b600061183c836000846118f1565b61184760028361221e565b156118755782611858600284612232565b81518110611868576118686120a0565b60200260200101516118d3565b6118d3836001611886600286612232565b61189091906120e5565b815181106118a0576118a06120a0565b6020026020010151846002856118b69190612232565b815181106118c6576118c66120a0565b60200260200101516119b0565b9392505050565b6000818310156118ea57816118d3565b5090919050565b8082101561051e5760008290506000848281518110611912576119126120a0565b60200260200101519050600084600161192b91906121bb565b90505b8381101561197d5781868281518110611949576119496120a0565b6020026020010151101561196d5761196d8682611965866120cc565b9550856119cb565b611976816120cc565b905061192e565b506119898585846119cb565b6119948585846118f1565b6119a9856119a38460016121bb565b856118f1565b5050505050565b60006119bf6002848418612232565b6118d3908484166121bb565b8281815181106119dd576119dd6120a0565b60200260200101518383815181106119f7576119f76120a0565b6020026020010151848481518110611a1157611a116120a0565b60200260200101858481518110611a2a57611a2a6120a0565b602090810291909101019190915252505050565b600060808284031215611a5057600080fd5b50919050565b634e487b7160e01b600052604160045260246000fd5b604051606081016001600160401b0381118282101715611a8e57611a8e611a56565b60405290565b604051608081016001600160401b0381118282101715611a8e57611a8e611a56565b604051601f8201601f191681016001600160401b0381118282101715611ade57611ade611a56565b604052919050565b60006001600160401b03821115611aff57611aff611a56565b5060051b60200190565b600082601f830112611b1a57600080fd5b81356020611b2f611b2a83611ae6565b611ab6565b82815260059290921b84018101918181019086841115611b4e57600080fd5b8286015b84811015611b695780358352918301918301611b52565b509695505050505050565b803560018110611b8357600080fd5b919050565b60008060408385031215611b9b57600080fd5b82356001600160401b03811115611bb157600080fd5b611bbd85828601611b09565b925050611bcc60208401611b74565b90509250929050565b600060208284031215611be757600080fd5b5035919050565b60008060408385031215611c0157600080fd5b50508035926020909101359150565b60008060208385031215611c2357600080fd5b82356001600160401b0380821115611c3a57600080fd5b818501915085601f830112611c4e57600080fd5b813581811115611c5d57600080fd5b86602060c083028501011115611c7257600080fd5b60209290920196919550909350505050565b600060608284031215611a5057600080fd5b634e487b7160e01b600052602160045260246000fd5b60018110611cca57634e487b7160e01b600052602160045260246000fd5b9052565b6001600160401b03851681526001600160801b038416602082015260808101611cfa6040830185611cac565b60ff8316606083015295945050505050565b6001600160a01b0381168114610a3f57600080fd5b8015158114610a3f57600080fd5b600082601f830112611d4057600080fd5b81356020611d50611b2a83611ae6565b82815260609283028501820192828201919087851115611d6f57600080fd5b8387015b85811015611db65781818a031215611d8b5760008081fd5b611d93611a6c565b813581528582013586820152604080830135908201528452928401928101611d73565b5090979650505050505050565b60008060006060808587031215611dd957600080fd5b8435611de481611d0c565b93506020858101356001600160401b0380821115611e0157600080fd5b818801915088601f830112611e1557600080fd5b8135611e23611b2a82611ae6565b81815260079190911b8301840190848101908b831115611e4257600080fd5b938501935b82851015611eaa576080858d031215611e605760008081fd5b611e68611a94565b853581528686013587820152604080870135611e8381611d21565b9082015285880135611e9481611d0c565b8189015282526080949094019390850190611e47565b975050506040880135935080841115611ec257600080fd5b505050611ed186828701611d2f565b9150509250925092565b600080600060608486031215611ef057600080fd5b83359250611f0060208501611b74565b915060408401356001600160401b03811115611f1b57600080fd5b611ed186828701611b09565b600060c08284031215611a5057600080fd5b60008060408385031215611f4c57600080fd5b8235915060208301356001600160401b03811115611f6957600080fd5b611f7585828601611b09565b9150509250929050565b6040808252835182820181905260009190606090818501906020808901865b83811015611fee57815180516001600160801b039081168752848201516001600160801b031916858801528882015181168988015290870151168686015260809094019390820190600101611f9e565b505095909501959095525092949350505050565b6000806040838503121561201557600080fd5b82359150611bcc60208401611b74565b60006020828403121561203757600080fd5b81356118d381611d0c565b813581556020820135600182015560028101604083013561206281611d21565b8154606085013561207281611d0c565b6001600160a81b03199190911691151560ff169190911760089190911b610100600160a81b03161790555050565b634e487b7160e01b600052603260045260246000fd5b634e487b7160e01b600052601160045260246000fd5b6000600182016120de576120de6120b6565b5060010190565b818103818111156114fd576114fd6120b6565b60006080820190506001600160401b0383511682526001600160801b03602084015116602083015260408301516121326040840182611cac565b5060609283015160ff16919092015290565b600081830360c081121561215757600080fd5b61215f611a94565b606082121561216d57600080fd5b612175611a6c565b9150833582526020840135602083015260408401356040830152818152606084013560208201526080840135604082015260a08401356060820152809250505092915050565b808201808211156114fd576114fd6120b6565b6000602082840312156121e057600080fd5b81516118d381611d0c565b6000602082840312156121fd57600080fd5b81516118d381611d21565b634e487b7160e01b600052601260045260246000fd5b60008261222d5761222d612208565b500690565b60008261224157612241612208565b50049056fea2646970667358221220a0214f67534788bc5c1f8b0e2a3d71f225911014f24863a1e7c88dccf64dc9fe64736f6c63430008100033",
        "nonce": "0x3a",
        "accessList": []
      },
      "additionalContracts": []
    },
    {
      "hash": "0x75c54fa20a4228e10d7f26e12c2a316c80eb588ad170c88be5a46c5418bd5d72",
      "transactionType": "CALL",
      "contractName": "Oracle",
      "contractAddress": "0x26a7756c4aC33379621Da862308f8527FED3Dc47",
      "function": "initialize(address,(bytes32,uint256,bool,address)[],(bytes32,bytes32,bytes32)[])",
      "arguments": [
        "0xd9C97273789f4bF3ad18343f4Cd703Bc2d2bdc90",
        "[(0x5553440000000000000000000000000000000000000000000000000000000000, 6, false, 0x0000000000000000000000000000000000000000), (0x4254430000000000000000000000000000000000000000000000000000000000, 18, true, 0x5FfD3916dCcC058aDAD868cbd4bbc58d090Ef8D2), (0x5745544800000000000000000000000000000000000000000000000000000000, 18, true, 0x2C1b868d6596a18e32E61B901E4060C872647b6C), (0x5553444300000000000000000000000000000000000000000000000000000000, 6, true, 0x942a59F3398Cfbf2CdB2256246F5Ed10f78C7995), (0x5553445400000000000000000000000000000000000000000000000000000000, 18, true, 0xB57ffafc2E5A45A92f14A3aaa254B8Fa68C7F9c6)]",
        "[(0x574554482f555344000000000000000000000000000000000000000000000000, 0x5745544800000000000000000000000000000000000000000000000000000000, 0x5553440000000000000000000000000000000000000000000000000000000000), (0x4254432f55534400000000000000000000000000000000000000000000000000, 0x4254430000000000000000000000000000000000000000000000000000000000, 0x5553440000000000000000000000000000000000000000000000000000000000), (0x555344432f555344000000000000000000000000000000000000000000000000, 0x5553444300000000000000000000000000000000000000000000000000000000, 0x5553440000000000000000000000000000000000000000000000000000000000), (0x555344542f555344000000000000000000000000000000000000000000000000, 0x5553445400000000000000000000000000000000000000000000000000000000, 0x5553440000000000000000000000000000000000000000000000000000000000), (0x4441492f55534400000000000000000000000000000000000000000000000000, 0x4441490000000000000000000000000000000000000000000000000000000000, 0x5553440000000000000000000000000000000000000000000000000000000000)]"
      ],
      "rpc": "https://consensys-zkevm-goerli-prealpha.infura.io/v3/ef9b71db32e242f39c6cf0691c8b521a",
      "transaction": {
        "type": "0x02",
        "from": "0xc945cf53d9ab754a3f5ee20030c78fe5d8ce0010",
        "to": "0x26a7756c4ac33379621da862308f8527fed3dc47",
        "gas": "0xfd836",
        "value": "0x0",
        "data": "0x9af4713e000000000000000000000000d9c97273789f4bf3ad18343f4cd703bc2d2bdc9000000000000000000000000000000000000000000000000000000000000000600000000000000000000000000000000000000000000000000000000000000300000000000000000000000000000000000000000000000000000000000000000555534400000000000000000000000000000000000000000000000000000000000000000000000000000000000000000000000000000000000000000000000006000000000000000000000000000000000000000000000000000000000000000000000000000000000000000000000000000000000000000000000000000000004254430000000000000000000000000000000000000000000000000000000000000000000000000000000000000000000000000000000000000000000000001200000000000000000000000000000000000000000000000000000000000000010000000000000000000000005ffd3916dccc058adad868cbd4bbc58d090ef8d25745544800000000000000000000000000000000000000000000000000000000000000000000000000000000000000000000000000000000000000000000001200000000000000000000000000000000000000000000000000000000000000010000000000000000000000002c1b868d6596a18e32e61b901e4060c872647b6c555344430000000000000000000000000000000000000000000000000000000000000000000000000000000000000000000000000000000000000000000000060000000000000000000000000000000000000000000000000000000000000001000000000000000000000000942a59f3398cfbf2cdb2256246f5ed10f78c7995555344540000000000000000000000000000000000000000000000000000000000000000000000000000000000000000000000000000000000000000000000120000000000000000000000000000000000000000000000000000000000000001000000000000000000000000b57ffafc2e5a45a92f14a3aaa254b8fa68c7f9c60000000000000000000000000000000000000000000000000000000000000005574554482f555344000000000000000000000000000000000000000000000000574554480000000000000000000000000000000000000000000000000000000055534400000000000000000000000000000000000000000000000000000000004254432f5553440000000000000000000000000000000000000000000000000042544300000000000000000000000000000000000000000000000000000000005553440000000000000000000000000000000000000000000000000000000000555344432f55534400000000000000000000000000000000000000000000000055534443000000000000000000000000000000000000000000000000000000005553440000000000000000000000000000000000000000000000000000000000555344542f555344000000000000000000000000000000000000000000000000555344540000000000000000000000000000000000000000000000000000000055534400000000000000000000000000000000000000000000000000000000004441492f5553440000000000000000000000000000000000000000000000000044414900000000000000000000000000000000000000000000000000000000005553440000000000000000000000000000000000000000000000000000000000",
        "nonce": "0x3b",
        "accessList": []
      },
      "additionalContracts": []
    },
    {
      "hash": "0xb3c431a4806b56128fbfabe8760700c65c9dd1bbbf8876cd5884411432a435f2",
      "transactionType": "CREATE",
      "contractName": "ProxyAdmin",
      "contractAddress": "0x09b093D3636290E9832Dd21aAB29319519129f63",
      "function": null,
      "arguments": null,
      "rpc": "https://consensys-zkevm-goerli-prealpha.infura.io/v3/ef9b71db32e242f39c6cf0691c8b521a",
      "transaction": {
        "type": "0x02",
        "from": "0xc945cf53d9ab754a3f5ee20030c78fe5d8ce0010",
        "gas": "0x8c2d1",
        "value": "0x0",
        "data": "0x608060405234801561001057600080fd5b5061001a3361001f565b61006f565b600080546001600160a01b038381166001600160a01b0319831681178455604051919092169283917f8be0079c531659141344cd1fd0a4f28419497f9722a3daafe3b4186f6b6457e09190a35050565b6106938061007e6000396000f3fe60806040526004361061007b5760003560e01c80639623609d1161004e5780639623609d1461011157806399a88ec414610124578063f2fde38b14610144578063f3b7dead1461016457600080fd5b8063204e1c7a14610080578063715018a6146100bc5780637eff275e146100d35780638da5cb5b146100f3575b600080fd5b34801561008c57600080fd5b506100a061009b366004610499565b610184565b6040516001600160a01b03909116815260200160405180910390f35b3480156100c857600080fd5b506100d1610215565b005b3480156100df57600080fd5b506100d16100ee3660046104bd565b610229565b3480156100ff57600080fd5b506000546001600160a01b03166100a0565b6100d161011f36600461050c565b610291565b34801561013057600080fd5b506100d161013f3660046104bd565b610300565b34801561015057600080fd5b506100d161015f366004610499565b610336565b34801561017057600080fd5b506100a061017f366004610499565b6103b4565b6000806000836001600160a01b03166040516101aa90635c60da1b60e01b815260040190565b600060405180830381855afa9150503d80600081146101e5576040519150601f19603f3d011682016040523d82523d6000602084013e6101ea565b606091505b5091509150816101f957600080fd5b8080602001905181019061020d91906105e2565b949350505050565b61021d6103da565b6102276000610434565b565b6102316103da565b6040516308f2839760e41b81526001600160a01b038281166004830152831690638f283970906024015b600060405180830381600087803b15801561027557600080fd5b505af1158015610289573d6000803e3d6000fd5b505050505050565b6102996103da565b60405163278f794360e11b81526001600160a01b03841690634f1ef2869034906102c990869086906004016105ff565b6000604051808303818588803b1580156102e257600080fd5b505af11580156102f6573d6000803e3d6000fd5b5050505050505050565b6103086103da565b604051631b2ce7f360e11b81526001600160a01b038281166004830152831690633659cfe69060240161025b565b61033e6103da565b6001600160a01b0381166103a85760405162461bcd60e51b815260206004820152602660248201527f4f776e61626c653a206e6577206f776e657220697320746865207a65726f206160448201526564647265737360d01b60648201526084015b60405180910390fd5b6103b181610434565b50565b6000806000836001600160a01b03166040516101aa906303e1469160e61b815260040190565b6000546001600160a01b031633146102275760405162461bcd60e51b815260206004820181905260248201527f4f776e61626c653a2063616c6c6572206973206e6f7420746865206f776e6572604482015260640161039f565b600080546001600160a01b038381166001600160a01b0319831681178455604051919092169283917f8be0079c531659141344cd1fd0a4f28419497f9722a3daafe3b4186f6b6457e09190a35050565b6001600160a01b03811681146103b157600080fd5b6000602082840312156104ab57600080fd5b81356104b681610484565b9392505050565b600080604083850312156104d057600080fd5b82356104db81610484565b915060208301356104eb81610484565b809150509250929050565b634e487b7160e01b600052604160045260246000fd5b60008060006060848603121561052157600080fd5b833561052c81610484565b9250602084013561053c81610484565b9150604084013567ffffffffffffffff8082111561055957600080fd5b818601915086601f83011261056d57600080fd5b81358181111561057f5761057f6104f6565b604051601f8201601f19908116603f011681019083821181831017156105a7576105a76104f6565b816040528281528960208487010111156105c057600080fd5b8260208601602083013760006020848301015280955050505050509250925092565b6000602082840312156105f457600080fd5b81516104b681610484565b60018060a01b038316815260006020604081840152835180604085015260005b8181101561063b5785810183015185820160600152820161061f565b506000606082860101526060601f19601f83011685010192505050939250505056fea26469706673582212205a0e29fcb4b4d8908919ab70e587e24fcdee865501629348351378312c0be27364736f6c63430008100033",
        "nonce": "0x3c",
        "accessList": []
      },
      "additionalContracts": []
    },
    {
      "hash": "0x64fa59ecc9a07d8c78e1a14823c9f25e9dff57f62ddd9564ea997226e490cda2",
      "transactionType": "CREATE",
      "contractName": "TransparentUpgradeableProxy",
      "contractAddress": "0xF661c4772f5893a329F8B7419afbCFdcC3f23c36",
      "function": null,
      "arguments": [
        "0x26a7756c4aC33379621Da862308f8527FED3Dc47",
        "0x09b093D3636290E9832Dd21aAB29319519129f63",
        "0x"
      ],
      "rpc": "https://consensys-zkevm-goerli-prealpha.infura.io/v3/ef9b71db32e242f39c6cf0691c8b521a",
      "transaction": {
        "type": "0x02",
        "from": "0xc945cf53d9ab754a3f5ee20030c78fe5d8ce0010",
        "gas": "0xb762e",
        "value": "0x0",
        "data": "0x608060405260405162000e3438038062000e34833981016040819052620000269162000487565b828162000036828260006200004d565b50620000449050826200008a565b505050620005ba565b6200005883620000e5565b600082511180620000665750805b1562000085576200008383836200012760201b6200022e1760201c565b505b505050565b7f7e644d79422f17c01e4894b5f4f588d331ebfa28653d42ae832dc59e38c9798f620000b562000156565b604080516001600160a01b03928316815291841660208301520160405180910390a1620000e2816200018f565b50565b620000f08162000244565b6040516001600160a01b038216907fbc7cd75a20ee27fd9adebab32041f755214dbc6bffa90cc0225b39da2e5c2d3b90600090a250565b60606200014f838360405180606001604052806027815260200162000e0d60279139620002f8565b9392505050565b60006200018060008051602062000ded83398151915260001b620003de60201b620001ea1760201c565b546001600160a01b0316919050565b6001600160a01b038116620001fa5760405162461bcd60e51b815260206004820152602660248201527f455243313936373a206e65772061646d696e20697320746865207a65726f206160448201526564647265737360d01b60648201526084015b60405180910390fd5b806200022360008051602062000ded83398151915260001b620003de60201b620001ea1760201c565b80546001600160a01b0319166001600160a01b039290921691909117905550565b6200025a81620003e160201b6200025a1760201c565b620002be5760405162461bcd60e51b815260206004820152602d60248201527f455243313936373a206e657720696d706c656d656e746174696f6e206973206e60448201526c1bdd08184818dbdb9d1c9858dd609a1b6064820152608401620001f1565b80620002237f360894a13ba1a3210667c828492db98dca3e2076cc3735a920a3ca505d382bbc60001b620003de60201b620001ea1760201c565b60606001600160a01b0384163b620003625760405162461bcd60e51b815260206004820152602660248201527f416464726573733a2064656c65676174652063616c6c20746f206e6f6e2d636f6044820152651b9d1c9858dd60d21b6064820152608401620001f1565b600080856001600160a01b0316856040516200037f919062000567565b600060405180830381855af49150503d8060008114620003bc576040519150601f19603f3d011682016040523d82523d6000602084013e620003c1565b606091505b509092509050620003d4828286620003f0565b9695505050505050565b90565b6001600160a01b03163b151590565b60608315620004015750816200014f565b825115620004125782518084602001fd5b8160405162461bcd60e51b8152600401620001f1919062000585565b80516001600160a01b03811681146200044657600080fd5b919050565b634e487b7160e01b600052604160045260246000fd5b60005b838110156200047e57818101518382015260200162000464565b50506000910152565b6000806000606084860312156200049d57600080fd5b620004a8846200042e565b9250620004b8602085016200042e565b60408501519092506001600160401b0380821115620004d657600080fd5b818601915086601f830112620004eb57600080fd5b8151818111156200050057620005006200044b565b604051601f8201601f19908116603f011681019083821181831017156200052b576200052b6200044b565b816040528281528960208487010111156200054557600080fd5b6200055883602083016020880162000461565b80955050505050509250925092565b600082516200057b81846020870162000461565b9190910192915050565b6020815260008251806020840152620005a681604085016020870162000461565b601f01601f19169190910160400192915050565b61082380620005ca6000396000f3fe60806040526004361061004e5760003560e01c80633659cfe6146100655780634f1ef286146100855780635c60da1b146100985780638f283970146100c9578063f851a440146100e95761005d565b3661005d5761005b6100fe565b005b61005b6100fe565b34801561007157600080fd5b5061005b6100803660046106b5565b610118565b61005b6100933660046106d0565b610155565b3480156100a457600080fd5b506100ad6101bc565b6040516001600160a01b03909116815260200160405180910390f35b3480156100d557600080fd5b5061005b6100e43660046106b5565b6101ed565b3480156100f557600080fd5b506100ad61020d565b610106610269565b6101166101116102fe565b610308565b565b61012061032c565b6001600160a01b0316330361014d5761014a8160405180602001604052806000815250600061035f565b50565b61014a6100fe565b61015d61032c565b6001600160a01b031633036101b4576101af8383838080601f0160208091040260200160405190810160405280939291908181526020018383808284376000920191909152506001925061035f915050565b505050565b6101af6100fe565b60006101c661032c565b6001600160a01b031633036101e2576101dd6102fe565b905090565b6101ea6100fe565b90565b6101f561032c565b6001600160a01b0316330361014d5761014a8161038a565b600061021761032c565b6001600160a01b031633036101e2576101dd61032c565b606061025383836040518060600160405280602781526020016107c7602791396103de565b9392505050565b6001600160a01b03163b151590565b61027161032c565b6001600160a01b031633036101165760405162461bcd60e51b815260206004820152604260248201527f5472616e73706172656e745570677261646561626c6550726f78793a2061646d60448201527f696e2063616e6e6f742066616c6c6261636b20746f2070726f78792074617267606482015261195d60f21b608482015260a4015b60405180910390fd5b60006101dd6104bb565b3660008037600080366000845af43d6000803e808015610327573d6000f35b3d6000fd5b60007fb53127684a568b3173ae13b9f8a6016e243e63b6e8ee1178d6a717850b5d61035b546001600160a01b0316919050565b610368836104e3565b6000825111806103755750805b156101af57610384838361022e565b50505050565b7f7e644d79422f17c01e4894b5f4f588d331ebfa28653d42ae832dc59e38c9798f6103b361032c565b604080516001600160a01b03928316815291841660208301520160405180910390a161014a81610523565b60606001600160a01b0384163b6104465760405162461bcd60e51b815260206004820152602660248201527f416464726573733a2064656c65676174652063616c6c20746f206e6f6e2d636f6044820152651b9d1c9858dd60d21b60648201526084016102f5565b600080856001600160a01b0316856040516104619190610777565b600060405180830381855af49150503d806000811461049c576040519150601f19603f3d011682016040523d82523d6000602084013e6104a1565b606091505b50915091506104b18282866105cc565b9695505050505050565b60007f360894a13ba1a3210667c828492db98dca3e2076cc3735a920a3ca505d382bbc610350565b6104ec81610605565b6040516001600160a01b038216907fbc7cd75a20ee27fd9adebab32041f755214dbc6bffa90cc0225b39da2e5c2d3b90600090a250565b6001600160a01b0381166105885760405162461bcd60e51b815260206004820152602660248201527f455243313936373a206e65772061646d696e20697320746865207a65726f206160448201526564647265737360d01b60648201526084016102f5565b807fb53127684a568b3173ae13b9f8a6016e243e63b6e8ee1178d6a717850b5d61035b80546001600160a01b0319166001600160a01b039290921691909117905550565b606083156105db575081610253565b8251156105eb5782518084602001fd5b8160405162461bcd60e51b81526004016102f59190610793565b6001600160a01b0381163b6106725760405162461bcd60e51b815260206004820152602d60248201527f455243313936373a206e657720696d706c656d656e746174696f6e206973206e60448201526c1bdd08184818dbdb9d1c9858dd609a1b60648201526084016102f5565b807f360894a13ba1a3210667c828492db98dca3e2076cc3735a920a3ca505d382bbc6105ab565b80356001600160a01b03811681146106b057600080fd5b919050565b6000602082840312156106c757600080fd5b61025382610699565b6000806000604084860312156106e557600080fd5b6106ee84610699565b9250602084013567ffffffffffffffff8082111561070b57600080fd5b818601915086601f83011261071f57600080fd5b81358181111561072e57600080fd5b87602082850101111561074057600080fd5b6020830194508093505050509250925092565b60005b8381101561076e578181015183820152602001610756565b50506000910152565b60008251610789818460208701610753565b9190910192915050565b60208152600082518060208401526107b2816040850160208701610753565b601f01601f1916919091016040019291505056fe416464726573733a206c6f772d6c6576656c2064656c65676174652063616c6c206661696c6564a26469706673582212206ce2d2f635a92d2906eb983d1612a85c6a8fd489a548017dae5d3ac489b7409464736f6c63430008100033b53127684a568b3173ae13b9f8a6016e243e63b6e8ee1178d6a717850b5d6103416464726573733a206c6f772d6c6576656c2064656c65676174652063616c6c206661696c656400000000000000000000000026a7756c4ac33379621da862308f8527fed3dc4700000000000000000000000009b093d3636290e9832dd21aab29319519129f6300000000000000000000000000000000000000000000000000000000000000600000000000000000000000000000000000000000000000000000000000000000",
        "nonce": "0x3d",
        "accessList": []
      },
      "additionalContracts": []
    }
  ],
  "receipts": [
    {
      "transactionHash": "0x319b51f9f5f984a3b3636cd9555530ce57cdb421e5e36b35d4fc4e1e65552436",
      "transactionIndex": "0x0",
      "blockHash": "0x525d127796adce037c6b8d4fa6915b73e83eda0f712b294924ce004dfe6c8c75",
      "blockNumber": "0x1a228",
      "from": "0xC945cf53d9Ab754a3F5EE20030C78FE5D8Ce0010",
      "to": null,
      "cumulativeGasUsed": "0x6a0e9",
      "gasUsed": "0x6a0e9",
      "contractAddress": "0x06fb72c7535D23e001964D92De275a1105391232",
      "logs": [
        {
          "address": "0x06fb72c7535D23e001964D92De275a1105391232",
          "topics": [
            "0x8be0079c531659141344cd1fd0a4f28419497f9722a3daafe3b4186f6b6457e0",
            "0x0000000000000000000000000000000000000000000000000000000000000000",
            "0x000000000000000000000000c945cf53d9ab754a3f5ee20030c78fe5d8ce0010"
          ],
          "data": "0x",
          "blockHash": "0x525d127796adce037c6b8d4fa6915b73e83eda0f712b294924ce004dfe6c8c75",
          "blockNumber": "0x1a228",
          "transactionHash": "0x319b51f9f5f984a3b3636cd9555530ce57cdb421e5e36b35d4fc4e1e65552436",
          "transactionIndex": "0x0",
          "logIndex": "0x0",
          "removed": false
        }
      ],
      "status": "0x1",
      "logsBloom": "0x00000000000000000000000000000000000000000400000000800000000000000000000000000000000000000000000000000000000000000000000000000000000000000000000000000000000000000001000000000000000000002000000000000000020000000000000000000800800000000004000000000000000000400000000080000000000000000000000000000000000000000000000000000000000000000000000000000000000000000000000000000000000000000000000000000000000000000000000000000000000000000000000000000000000020000000000000800000000000000000000000000000000000000000000000000000",
      "type": "0x2",
      "effectiveGasPrice": "0xb2d05e07"
    },
    {
      "transactionHash": "0x8b81f2ae6dc1214550fcef920ec94c264499cace2ba907487bb7ca26584a9fe6",
      "transactionIndex": "0x1",
      "blockHash": "0x525d127796adce037c6b8d4fa6915b73e83eda0f712b294924ce004dfe6c8c75",
      "blockNumber": "0x1a228",
      "from": "0xC945cf53d9Ab754a3F5EE20030C78FE5D8Ce0010",
      "to": "0x06fb72c7535D23e001964D92De275a1105391232",
      "cumulativeGasUsed": "0x7b5c9",
      "gasUsed": "0x114e0",
      "contractAddress": null,
      "logs": [],
      "status": "0x1",
      "logsBloom": "0x00000000000000000000000000000000000000000000000000000000000000000000000000000000000000000000000000000000000000000000000000000000000000000000000000000000000000000000000000000000000000000000000000000000000000000000000000000000000000000000000000000000000000000000000000000000000000000000000000000000000000000000000000000000000000000000000000000000000000000000000000000000000000000000000000000000000000000000000000000000000000000000000000000000000000000000000000000000000000000000000000000000000000000000000000000000",
      "type": "0x2",
      "effectiveGasPrice": "0xb2d05e07"
    },
    {
      "transactionHash": "0x2c7bf8bdf9722f45e18829ebdd44174e9031d69c49731789973ee3dc5697758e",
      "transactionIndex": "0x2",
      "blockHash": "0x525d127796adce037c6b8d4fa6915b73e83eda0f712b294924ce004dfe6c8c75",
      "blockNumber": "0x1a228",
      "from": "0xC945cf53d9Ab754a3F5EE20030C78FE5D8Ce0010",
      "to": "0x06fb72c7535D23e001964D92De275a1105391232",
      "cumulativeGasUsed": "0x91961",
      "gasUsed": "0x16398",
      "contractAddress": null,
      "logs": [],
      "status": "0x1",
      "logsBloom": "0x00000000000000000000000000000000000000000000000000000000000000000000000000000000000000000000000000000000000000000000000000000000000000000000000000000000000000000000000000000000000000000000000000000000000000000000000000000000000000000000000000000000000000000000000000000000000000000000000000000000000000000000000000000000000000000000000000000000000000000000000000000000000000000000000000000000000000000000000000000000000000000000000000000000000000000000000000000000000000000000000000000000000000000000000000000000",
      "type": "0x2",
      "effectiveGasPrice": "0xb2d05e07"
    },
    {
      "transactionHash": "0x4c43eedf5d89c255c933226540a746be579e422fb3e4eaf0eabf1caae74147f3",
      "transactionIndex": "0x3",
      "blockHash": "0x525d127796adce037c6b8d4fa6915b73e83eda0f712b294924ce004dfe6c8c75",
      "blockNumber": "0x1a228",
      "from": "0xC945cf53d9Ab754a3F5EE20030C78FE5D8Ce0010",
      "to": "0x06fb72c7535D23e001964D92De275a1105391232",
      "cumulativeGasUsed": "0xa7d05",
      "gasUsed": "0x163a4",
      "contractAddress": null,
      "logs": [],
      "status": "0x1",
      "logsBloom": "0x00000000000000000000000000000000000000000000000000000000000000000000000000000000000000000000000000000000000000000000000000000000000000000000000000000000000000000000000000000000000000000000000000000000000000000000000000000000000000000000000000000000000000000000000000000000000000000000000000000000000000000000000000000000000000000000000000000000000000000000000000000000000000000000000000000000000000000000000000000000000000000000000000000000000000000000000000000000000000000000000000000000000000000000000000000000",
      "type": "0x2",
      "effectiveGasPrice": "0xb2d05e07"
    },
    {
      "transactionHash": "0x5ddf3809d3919f80d8f508351913e95657e1bc74c67660cfe8dc71bff66dc777",
      "transactionIndex": "0x4",
      "blockHash": "0x525d127796adce037c6b8d4fa6915b73e83eda0f712b294924ce004dfe6c8c75",
      "blockNumber": "0x1a228",
      "from": "0xC945cf53d9Ab754a3F5EE20030C78FE5D8Ce0010",
      "to": "0x06fb72c7535D23e001964D92De275a1105391232",
      "cumulativeGasUsed": "0xbe0a9",
      "gasUsed": "0x163a4",
      "contractAddress": null,
      "logs": [],
      "status": "0x1",
      "logsBloom": "0x00000000000000000000000000000000000000000000000000000000000000000000000000000000000000000000000000000000000000000000000000000000000000000000000000000000000000000000000000000000000000000000000000000000000000000000000000000000000000000000000000000000000000000000000000000000000000000000000000000000000000000000000000000000000000000000000000000000000000000000000000000000000000000000000000000000000000000000000000000000000000000000000000000000000000000000000000000000000000000000000000000000000000000000000000000000",
      "type": "0x2",
      "effectiveGasPrice": "0xb2d05e07"
    },
    {
      "transactionHash": "0xae88701d199e298a34b123b064a5cfcbc7158b0c667e5694812aa5a032dc3e43",
      "transactionIndex": "0x5",
      "blockHash": "0x525d127796adce037c6b8d4fa6915b73e83eda0f712b294924ce004dfe6c8c75",
      "blockNumber": "0x1a228",
      "from": "0xC945cf53d9Ab754a3F5EE20030C78FE5D8Ce0010",
      "to": "0x06fb72c7535D23e001964D92De275a1105391232",
      "cumulativeGasUsed": "0xd444d",
      "gasUsed": "0x163a4",
      "contractAddress": null,
      "logs": [],
      "status": "0x1",
      "logsBloom": "0x00000000000000000000000000000000000000000000000000000000000000000000000000000000000000000000000000000000000000000000000000000000000000000000000000000000000000000000000000000000000000000000000000000000000000000000000000000000000000000000000000000000000000000000000000000000000000000000000000000000000000000000000000000000000000000000000000000000000000000000000000000000000000000000000000000000000000000000000000000000000000000000000000000000000000000000000000000000000000000000000000000000000000000000000000000000",
      "type": "0x2",
      "effectiveGasPrice": "0xb2d05e07"
    },
    {
      "transactionHash": "0x9c42ecff4906b619d887ba9e421d1bdda6da46147efcbd4fbc59f2ead9f16d1c",
      "transactionIndex": "0x6",
      "blockHash": "0x525d127796adce037c6b8d4fa6915b73e83eda0f712b294924ce004dfe6c8c75",
      "blockNumber": "0x1a228",
      "from": "0xC945cf53d9Ab754a3F5EE20030C78FE5D8Ce0010",
      "to": "0x06fb72c7535D23e001964D92De275a1105391232",
      "cumulativeGasUsed": "0xf03d1",
      "gasUsed": "0x1bf84",
      "contractAddress": null,
      "logs": [
        {
          "address": "0x06fb72c7535D23e001964D92De275a1105391232",
          "topics": [
            "0x2470a711cdf3507c073c78e8f88c84f26e4f79177813a8c35f9fcca60e0685fb"
          ],
          "data": "0x574554482f55534400000000000000000000000000000000000000000000000057455448000000000000000000000000000000000000000000000000000000005553440000000000000000000000000000000000000000000000000000000000",
          "blockHash": "0x525d127796adce037c6b8d4fa6915b73e83eda0f712b294924ce004dfe6c8c75",
          "blockNumber": "0x1a228",
          "transactionHash": "0x9c42ecff4906b619d887ba9e421d1bdda6da46147efcbd4fbc59f2ead9f16d1c",
          "transactionIndex": "0x6",
          "logIndex": "0x1",
          "removed": false
        }
      ],
      "status": "0x1",
      "logsBloom": "0x00000000000000000000000000000000000000000000000000000000000000000000000000000000000000000000000000000000000000000000000000000000000000002000000000000000000000000000000000000000000000002000000000000000000000000000000000000000800000000004000000000000000000000000000000000000000000000000000000000000000010000000000000000000000000000000000000000000002000000000000000000000000000000000000000000000000000000000000000000000000000000000000000000000000000000000000000000000000000000000000000000000000000000000000000000000",
      "type": "0x2",
      "effectiveGasPrice": "0xb2d05e07"
    },
    {
      "transactionHash": "0x4220aec4de7a5c876d7bbe993fc6d890fa37e45f932f0f4b949ffae7249d24f1",
      "transactionIndex": "0x7",
      "blockHash": "0x525d127796adce037c6b8d4fa6915b73e83eda0f712b294924ce004dfe6c8c75",
      "blockNumber": "0x1a228",
      "from": "0xC945cf53d9Ab754a3F5EE20030C78FE5D8Ce0010",
      "to": "0x06fb72c7535D23e001964D92De275a1105391232",
      "cumulativeGasUsed": "0x10c33d",
      "gasUsed": "0x1bf6c",
      "contractAddress": null,
      "logs": [
        {
          "address": "0x06fb72c7535D23e001964D92De275a1105391232",
          "topics": [
            "0x2470a711cdf3507c073c78e8f88c84f26e4f79177813a8c35f9fcca60e0685fb"
          ],
          "data": "0x4254432f5553440000000000000000000000000000000000000000000000000042544300000000000000000000000000000000000000000000000000000000005553440000000000000000000000000000000000000000000000000000000000",
          "blockHash": "0x525d127796adce037c6b8d4fa6915b73e83eda0f712b294924ce004dfe6c8c75",
          "blockNumber": "0x1a228",
          "transactionHash": "0x4220aec4de7a5c876d7bbe993fc6d890fa37e45f932f0f4b949ffae7249d24f1",
          "transactionIndex": "0x7",
          "logIndex": "0x2",
          "removed": false
        }
      ],
      "status": "0x1",
      "logsBloom": "0x00000000000000000000000000000000000000000000000000000000000000000000000000000000000000000000000000000000000000000000000000000000000000002000000000000000000000000000000000000000000000002000000000000000000000000000000000000000800000000004000000000000000000000000000000000000000000000000000000000000000010000000000000000000000000000000000000000000002000000000000000000000000000000000000000000000000000000000000000000000000000000000000000000000000000000000000000000000000000000000000000000000000000000000000000000000",
      "type": "0x2",
      "effectiveGasPrice": "0xb2d05e07"
    },
    {
      "transactionHash": "0x2ab04faa9bdba00a866c715a58a225663c13dcad6d77d8f0dc9c4a627df7a74d",
      "transactionIndex": "0x8",
      "blockHash": "0x525d127796adce037c6b8d4fa6915b73e83eda0f712b294924ce004dfe6c8c75",
      "blockNumber": "0x1a228",
      "from": "0xC945cf53d9Ab754a3F5EE20030C78FE5D8Ce0010",
      "to": "0x06fb72c7535D23e001964D92De275a1105391232",
      "cumulativeGasUsed": "0x1282c1",
      "gasUsed": "0x1bf84",
      "contractAddress": null,
      "logs": [
        {
          "address": "0x06fb72c7535D23e001964D92De275a1105391232",
          "topics": [
            "0x2470a711cdf3507c073c78e8f88c84f26e4f79177813a8c35f9fcca60e0685fb"
          ],
          "data": "0x555344432f55534400000000000000000000000000000000000000000000000055534443000000000000000000000000000000000000000000000000000000005553440000000000000000000000000000000000000000000000000000000000",
          "blockHash": "0x525d127796adce037c6b8d4fa6915b73e83eda0f712b294924ce004dfe6c8c75",
          "blockNumber": "0x1a228",
          "transactionHash": "0x2ab04faa9bdba00a866c715a58a225663c13dcad6d77d8f0dc9c4a627df7a74d",
          "transactionIndex": "0x8",
          "logIndex": "0x3",
          "removed": false
        }
      ],
      "status": "0x1",
      "logsBloom": "0x00000000000000000000000000000000000000000000000000000000000000000000000000000000000000000000000000000000000000000000000000000000000000002000000000000000000000000000000000000000000000002000000000000000000000000000000000000000800000000004000000000000000000000000000000000000000000000000000000000000000010000000000000000000000000000000000000000000002000000000000000000000000000000000000000000000000000000000000000000000000000000000000000000000000000000000000000000000000000000000000000000000000000000000000000000000",
      "type": "0x2",
      "effectiveGasPrice": "0xb2d05e07"
    },
    {
      "transactionHash": "0xbae5c2b145dbb1ab96f3717db483577c7577b775b544abeb8f02d206af07159b",
      "transactionIndex": "0x9",
      "blockHash": "0x525d127796adce037c6b8d4fa6915b73e83eda0f712b294924ce004dfe6c8c75",
      "blockNumber": "0x1a228",
      "from": "0xC945cf53d9Ab754a3F5EE20030C78FE5D8Ce0010",
      "to": "0x06fb72c7535D23e001964D92De275a1105391232",
      "cumulativeGasUsed": "0x144245",
      "gasUsed": "0x1bf84",
      "contractAddress": null,
      "logs": [
        {
          "address": "0x06fb72c7535D23e001964D92De275a1105391232",
          "topics": [
            "0x2470a711cdf3507c073c78e8f88c84f26e4f79177813a8c35f9fcca60e0685fb"
          ],
          "data": "0x555344542f55534400000000000000000000000000000000000000000000000055534454000000000000000000000000000000000000000000000000000000005553440000000000000000000000000000000000000000000000000000000000",
          "blockHash": "0x525d127796adce037c6b8d4fa6915b73e83eda0f712b294924ce004dfe6c8c75",
          "blockNumber": "0x1a228",
          "transactionHash": "0xbae5c2b145dbb1ab96f3717db483577c7577b775b544abeb8f02d206af07159b",
          "transactionIndex": "0x9",
          "logIndex": "0x4",
          "removed": false
        }
      ],
      "status": "0x1",
      "logsBloom": "0x00000000000000000000000000000000000000000000000000000000000000000000000000000000000000000000000000000000000000000000000000000000000000002000000000000000000000000000000000000000000000002000000000000000000000000000000000000000800000000004000000000000000000000000000000000000000000000000000000000000000010000000000000000000000000000000000000000000002000000000000000000000000000000000000000000000000000000000000000000000000000000000000000000000000000000000000000000000000000000000000000000000000000000000000000000000",
      "type": "0x2",
      "effectiveGasPrice": "0xb2d05e07"
    },
    {
      "transactionHash": "0xae957134290c98ea921f9f16c744553da1d92090eb9871f4526aec9d0618d5e9",
      "transactionIndex": "0xa",
      "blockHash": "0x525d127796adce037c6b8d4fa6915b73e83eda0f712b294924ce004dfe6c8c75",
      "blockNumber": "0x1a228",
      "from": "0xC945cf53d9Ab754a3F5EE20030C78FE5D8Ce0010",
      "to": "0x06fb72c7535D23e001964D92De275a1105391232",
      "cumulativeGasUsed": "0x1601b1",
      "gasUsed": "0x1bf6c",
      "contractAddress": null,
      "logs": [
        {
          "address": "0x06fb72c7535D23e001964D92De275a1105391232",
          "topics": [
            "0x2470a711cdf3507c073c78e8f88c84f26e4f79177813a8c35f9fcca60e0685fb"
          ],
          "data": "0x4441492f5553440000000000000000000000000000000000000000000000000044414900000000000000000000000000000000000000000000000000000000005553440000000000000000000000000000000000000000000000000000000000",
          "blockHash": "0x525d127796adce037c6b8d4fa6915b73e83eda0f712b294924ce004dfe6c8c75",
          "blockNumber": "0x1a228",
          "transactionHash": "0xae957134290c98ea921f9f16c744553da1d92090eb9871f4526aec9d0618d5e9",
          "transactionIndex": "0xa",
          "logIndex": "0x5",
          "removed": false
        }
      ],
      "status": "0x1",
      "logsBloom": "0x00000000000000000000000000000000000000000000000000000000000000000000000000000000000000000000000000000000000000000000000000000000000000002000000000000000000000000000000000000000000000002000000000000000000000000000000000000000800000000004000000000000000000000000000000000000000000000000000000000000000010000000000000000000000000000000000000000000002000000000000000000000000000000000000000000000000000000000000000000000000000000000000000000000000000000000000000000000000000000000000000000000000000000000000000000000",
      "type": "0x2",
      "effectiveGasPrice": "0xb2d05e07"
    },
    {
      "transactionHash": "0x17ccbaf0abc3c7beedc053c9d01bb162b7803b772d1d8210e6710963c834f4cd",
      "transactionIndex": "0xb",
      "blockHash": "0x525d127796adce037c6b8d4fa6915b73e83eda0f712b294924ce004dfe6c8c75",
      "blockNumber": "0x1a228",
      "from": "0xC945cf53d9Ab754a3F5EE20030C78FE5D8Ce0010",
      "to": null,
      "cumulativeGasUsed": "0x2143b3",
      "gasUsed": "0xb4202",
      "contractAddress": "0xd9C97273789f4bF3ad18343f4Cd703Bc2d2bdc90",
      "logs": [
        {
          "address": "0xd9C97273789f4bF3ad18343f4Cd703Bc2d2bdc90",
          "topics": [
            "0x8be0079c531659141344cd1fd0a4f28419497f9722a3daafe3b4186f6b6457e0",
            "0x0000000000000000000000000000000000000000000000000000000000000000",
            "0x000000000000000000000000c945cf53d9ab754a3f5ee20030c78fe5d8ce0010"
          ],
          "data": "0x",
          "blockHash": "0x525d127796adce037c6b8d4fa6915b73e83eda0f712b294924ce004dfe6c8c75",
          "blockNumber": "0x1a228",
          "transactionHash": "0x17ccbaf0abc3c7beedc053c9d01bb162b7803b772d1d8210e6710963c834f4cd",
          "transactionIndex": "0xb",
          "logIndex": "0x6",
          "removed": false
        }
      ],
      "status": "0x1",
      "logsBloom": "0x00000000000000000000000000000000000000000400000000800000000000000000000000000000000000000200000000000000000000000000000000000000000000000000000000400000000000000001000000000000000000000000000000000000020000000000000000000800000000000000000000000000000000400000000080000000000000000000000000000000000000000000000000000000000000000000000000000000000000000000000000000000000000000000000000000001000000000000000000000000000000000000000000000000000020000000000000800000000000000000000000000000000000000000000000000000",
      "type": "0x2",
      "effectiveGasPrice": "0xb2d05e07"
    },
    {
      "transactionHash": "0xc2487324b2f182115a5e2a2bac346bced8b40dfa38f0df380cc1a18c3f837e79",
      "transactionIndex": "0xc",
      "blockHash": "0x525d127796adce037c6b8d4fa6915b73e83eda0f712b294924ce004dfe6c8c75",
      "blockNumber": "0x1a228",
      "from": "0xC945cf53d9Ab754a3F5EE20030C78FE5D8Ce0010",
      "to": "0xd9C97273789f4bF3ad18343f4Cd703Bc2d2bdc90",
      "cumulativeGasUsed": "0x230280",
      "gasUsed": "0x1becd",
      "contractAddress": null,
      "logs": [
        {
          "address": "0xd9C97273789f4bF3ad18343f4Cd703Bc2d2bdc90",
          "topics": [
            "0x563a1fdc12536c671dc9a28707514f8b9b7036bae35b45190294904c540cf755"
          ],
          "data": "0x454d504952494300000000000000000000000000000000000000000000000000000000000000000000000000c945cf53d9ab754a3f5ee20030c78fe5d8ce0010",
          "blockHash": "0x525d127796adce037c6b8d4fa6915b73e83eda0f712b294924ce004dfe6c8c75",
          "blockNumber": "0x1a228",
          "transactionHash": "0xc2487324b2f182115a5e2a2bac346bced8b40dfa38f0df380cc1a18c3f837e79",
          "transactionIndex": "0xc",
          "logIndex": "0x7",
          "removed": false
        }
      ],
      "status": "0x1",
      "logsBloom": "0x00000000000000000000000000000000000000000000004000000000000000000000000000000000000000000200000000000000000000000000000000000000000000000000000000400000000000000000000000000000000000000000000000000000000000000000000000000000000000000000000000000000000000000000000000000000000080000000000000000000000000000000000000000000000000000000000000008000000000000000000000000000000000000000000000000001000000000000000000000000000000000000000000000000000000000000000000000000000000000000000000000000000000000000000000000000",
      "type": "0x2",
      "effectiveGasPrice": "0xb2d05e07"
    },
    {
      "transactionHash": "0xc2783f472df5965afa86cc0223a029b571c2f7c7da60ddbeb01a32cfbd80f06b",
      "transactionIndex": "0xd",
      "blockHash": "0x525d127796adce037c6b8d4fa6915b73e83eda0f712b294924ce004dfe6c8c75",
      "blockNumber": "0x1a228",
      "from": "0xC945cf53d9Ab754a3F5EE20030C78FE5D8Ce0010",
      "to": "0xd9C97273789f4bF3ad18343f4Cd703Bc2d2bdc90",
      "cumulativeGasUsed": "0x2689c0",
      "gasUsed": "0x38740",
      "contractAddress": null,
      "logs": [],
      "status": "0x1",
      "logsBloom": "0x00000000000000000000000000000000000000000000000000000000000000000000000000000000000000000000000000000000000000000000000000000000000000000000000000000000000000000000000000000000000000000000000000000000000000000000000000000000000000000000000000000000000000000000000000000000000000000000000000000000000000000000000000000000000000000000000000000000000000000000000000000000000000000000000000000000000000000000000000000000000000000000000000000000000000000000000000000000000000000000000000000000000000000000000000000000",
      "type": "0x2",
      "effectiveGasPrice": "0xb2d05e07"
    },
    {
      "transactionHash": "0xeec18f58448817f2745c1ab89bc099a6dee69420067068eede27d3d13f0f8313",
      "transactionIndex": "0xe",
      "blockHash": "0x525d127796adce037c6b8d4fa6915b73e83eda0f712b294924ce004dfe6c8c75",
      "blockNumber": "0x1a228",
      "from": "0xC945cf53d9Ab754a3F5EE20030C78FE5D8Ce0010",
      "to": null,
      "cumulativeGasUsed": "0x452a94",
      "gasUsed": "0x1ea0d4",
      "contractAddress": "0x26a7756c4aC33379621Da862308f8527FED3Dc47",
      "logs": [
        {
          "address": "0x26a7756c4aC33379621Da862308f8527FED3Dc47",
          "topics": [
            "0x8be0079c531659141344cd1fd0a4f28419497f9722a3daafe3b4186f6b6457e0",
            "0x0000000000000000000000000000000000000000000000000000000000000000",
            "0x000000000000000000000000c945cf53d9ab754a3f5ee20030c78fe5d8ce0010"
          ],
          "data": "0x",
          "blockHash": "0x525d127796adce037c6b8d4fa6915b73e83eda0f712b294924ce004dfe6c8c75",
          "blockNumber": "0x1a228",
          "transactionHash": "0xeec18f58448817f2745c1ab89bc099a6dee69420067068eede27d3d13f0f8313",
          "transactionIndex": "0xe",
          "logIndex": "0x8",
          "removed": false
        }
      ],
      "status": "0x1",
      "logsBloom": "0x00000000000000000000000000000000000000000400000000800000000000000000000000000000000000000000000000000000000000000000000000000000800000000000000000000000000000000201000000000000000000000000000000000000020000000000000000000800000000000000000000000000000000400000000080000000000000000000000000000000000000000000000000000000000000000000000000000000000000000000000000000000000000000000000000000000000000000000000000000000000000000000000000000000000020000000000000800000000000002000000000000000000000000000000000000000",
      "type": "0x2",
      "effectiveGasPrice": "0xb2d05e07"
    },
    {
      "transactionHash": "0x75c54fa20a4228e10d7f26e12c2a316c80eb588ad170c88be5a46c5418bd5d72",
      "transactionIndex": "0xf",
      "blockHash": "0x525d127796adce037c6b8d4fa6915b73e83eda0f712b294924ce004dfe6c8c75",
      "blockNumber": "0x1a228",
      "from": "0xC945cf53d9Ab754a3F5EE20030C78FE5D8Ce0010",
      "to": "0x26a7756c4aC33379621Da862308f8527FED3Dc47",
      "cumulativeGasUsed": "0x50000f",
      "gasUsed": "0xad57b",
      "contractAddress": null,
      "logs": [
        {
          "address": "0x26a7756c4aC33379621Da862308f8527FED3Dc47",
          "topics": [
            "0x7f26b83ff96e1f2b6a682f133852f6798a09c465da95921460cefb3847402498"
          ],
          "data": "0x0000000000000000000000000000000000000000000000000000000000000001",
          "blockHash": "0x525d127796adce037c6b8d4fa6915b73e83eda0f712b294924ce004dfe6c8c75",
          "blockNumber": "0x1a228",
          "transactionHash": "0x75c54fa20a4228e10d7f26e12c2a316c80eb588ad170c88be5a46c5418bd5d72",
          "transactionIndex": "0xf",
          "logIndex": "0x9",
          "removed": false
        }
      ],
      "status": "0x1",
      "logsBloom": "0x00000000000000000000000000000000000000000000000000000000000000000000000000000000000000000000000000000000000000000000000000000000800000000000000000000000000000000200000000000000000000000000000000000000000000000000000000000000000000000000000000000000000000000000000000000000000000000000000000000000000080000000000000000000000000000000000000000000000400000000000000000000000000000000000000000000000000000000000000040000000000000000000000000000000000000000000000000000000000002000000000000000000000000000000000000000",
      "type": "0x2",
      "effectiveGasPrice": "0xb2d05e07"
    },
    {
      "transactionHash": "0xb3c431a4806b56128fbfabe8760700c65c9dd1bbbf8876cd5884411432a435f2",
      "transactionIndex": "0x10",
      "blockHash": "0x525d127796adce037c6b8d4fa6915b73e83eda0f712b294924ce004dfe6c8c75",
      "blockNumber": "0x1a228",
      "from": "0xC945cf53d9Ab754a3F5EE20030C78FE5D8Ce0010",
      "to": null,
      "cumulativeGasUsed": "0x56bd4e",
      "gasUsed": "0x6bd3f",
      "contractAddress": "0x09b093D3636290E9832Dd21aAB29319519129f63",
      "logs": [
        {
          "address": "0x09b093D3636290E9832Dd21aAB29319519129f63",
          "topics": [
            "0x8be0079c531659141344cd1fd0a4f28419497f9722a3daafe3b4186f6b6457e0",
            "0x0000000000000000000000000000000000000000000000000000000000000000",
            "0x000000000000000000000000c945cf53d9ab754a3f5ee20030c78fe5d8ce0010"
          ],
          "data": "0x",
          "blockHash": "0x525d127796adce037c6b8d4fa6915b73e83eda0f712b294924ce004dfe6c8c75",
          "blockNumber": "0x1a228",
          "transactionHash": "0xb3c431a4806b56128fbfabe8760700c65c9dd1bbbf8876cd5884411432a435f2",
          "transactionIndex": "0x10",
          "logIndex": "0xa",
          "removed": false
        }
      ],
      "status": "0x1",
      "logsBloom": "0x00000000000000000000000000000000000000000400000000800000000000000000000000000000000000000000000000000000000000000000000000000000000000000000000000000000000000000001000000000000000000000000000000000000020000000000000000000800000000000000000000000000000000400000000080000000000000000000400000000000000000000000000000000000000000000000000000000000000000000000000000000000000000000000000000000000000000000000000000000000000000000000000000000000000020000008000000800000000000000000000000000400000000000000000000000000",
      "type": "0x2",
      "effectiveGasPrice": "0xb2d05e07"
    },
    {
      "transactionHash": "0x64fa59ecc9a07d8c78e1a14823c9f25e9dff57f62ddd9564ea997226e490cda2",
      "transactionIndex": "0x11",
      "blockHash": "0x525d127796adce037c6b8d4fa6915b73e83eda0f712b294924ce004dfe6c8c75",
      "blockNumber": "0x1a228",
      "from": "0xC945cf53d9Ab754a3F5EE20030C78FE5D8Ce0010",
      "to": null,
      "cumulativeGasUsed": "0x5f8e5e",
      "gasUsed": "0x8d110",
      "contractAddress": "0xF661c4772f5893a329F8B7419afbCFdcC3f23c36",
      "logs": [
        {
          "address": "0xF661c4772f5893a329F8B7419afbCFdcC3f23c36",
          "topics": [
            "0xbc7cd75a20ee27fd9adebab32041f755214dbc6bffa90cc0225b39da2e5c2d3b",
            "0x00000000000000000000000026a7756c4ac33379621da862308f8527fed3dc47"
          ],
          "data": "0x",
          "blockHash": "0x525d127796adce037c6b8d4fa6915b73e83eda0f712b294924ce004dfe6c8c75",
          "blockNumber": "0x1a228",
          "transactionHash": "0x64fa59ecc9a07d8c78e1a14823c9f25e9dff57f62ddd9564ea997226e490cda2",
          "transactionIndex": "0x11",
          "logIndex": "0xb",
          "removed": false
        },
        {
          "address": "0xF661c4772f5893a329F8B7419afbCFdcC3f23c36",
          "topics": [
            "0x7e644d79422f17c01e4894b5f4f588d331ebfa28653d42ae832dc59e38c9798f"
          ],
          "data": "0x000000000000000000000000000000000000000000000000000000000000000000000000000000000000000009b093d3636290e9832dd21aab29319519129f63",
          "blockHash": "0x525d127796adce037c6b8d4fa6915b73e83eda0f712b294924ce004dfe6c8c75",
          "blockNumber": "0x1a228",
          "transactionHash": "0x64fa59ecc9a07d8c78e1a14823c9f25e9dff57f62ddd9564ea997226e490cda2",
          "transactionIndex": "0x11",
          "logIndex": "0xc",
          "removed": false
        }
      ],
      "status": "0x1",
      "logsBloom": "0x00000000000000000000000000000000408000000000000000000000000000000000000000004000000000000000000000000000400000000400000000000000000000000000000000000000000002000000000000000000000000000000000000000000000000000000000000000000000000800000000000000000000000000000000000000000000000000000000000000000000000000000000000800000000000000000000008000000000000000000000000000000000000000000000000000020000000000000000000000000000000000400000000000000000000000000000000000000000000000000000000000000000000000000000001000000",
      "type": "0x2",
      "effectiveGasPrice": "0xb2d05e07"
    }
  ],
  "libraries": [],
  "pending": [],
  "path": "/Users/matthall/Documents/Pragma/contracts/evm/broadcast/deployOracle.s.sol/59140/run-latest.json",
  "returns": {},
  "timestamp": 1676890972,
  "chain": 59140,
  "multi": false,
  "commit": "c4c53ea"
}